:0300000002093EB4
:0C093E00787FE4F6D8FD7581650209851C
:060E340075BB70020E25E3
:040E3E00302E35001D
:100D25000B227FC0F9A4B0999282F880900121002E
:070D3500012D000231000056
:0C0DF0007F027E2B7DCFDDFEDEFCDFFAF3
:010DFC0022D4
:030E42008F80227C
:040E3A007580FF229E
:100CF300EF70047F0180027F00EFC43333335480ED
:090D0300FFE580547F4FF58022CA
:100B1A00E4FCEC900E3E93FF642E6010C3EF6480F9
:100B2A0094B0402CD3EF648094B95024EFB42E04CF
:100B3A00AF22800AEC900E3E9324F3F8E6FF120EE1
:100B4A0042E4FB120DF00BBB05F9120E3A120DF03E
:040B5A000CBC04BE0D
:010B5E002274
:100B5F00E4FFFE120D85120DF0E4F50AE4F50BE546
:100B6F000A75F005A47C00250BFFEC35F0FEE50AB5
:100B7F0075F005A42433250BF8E6F4FD120D6D0571
:100B8F000BE50BC3940540D7050AE50AC3940A4049
:010B9F00CB8A
:010BA0002232
:100BA100E4F50BE4F50AE50B75F005A47C00250AD4
:100BB100FFEC35F0FE120D55EFF4FFE50B75F00576
:100BC100A42433250AF8A607050AE50AC3940540BB
:0A0BD100D5050BE50BC3940A40C9DB
:010BDB0022F7
:080E1D00E4F52FF530F52E225B
:010E4500228A
:100BDC00ED70047E0180027E00AD06EF7006ED2400
:100BEC00FF92A322BF0106ED24FF92A222BF0206B0
:100BFC00ED24FF92A122BF0306ED24FF92A022BF99
:080C0C000405ED24FF92C4224F
:100C1400EDC394004031ED9405502CEF7006ED24A3
:100C2400FF92B322BF0106ED24FF92B422BF020655
:100C3400ED24FF92B522BF0306ED24FF92B622BF36
:080C44000405ED24FF92B72224
:020AC100AC0780
:100AC300ECC394005004E4FC8008ECC3940540029A
:100AD3007C048C2FE4FBAF30EF75F005A424332C9A
:100AE300F8E6F5827583007E007401A8030880058B
:100AF300C333CE33CED8F9FFEE5583FEEF5582A82C
:100B030003088006CEA2E713CE13D8F8FDAF031275
:060B13000BDC0BBB04C06B
:010B190022B9
:070E2D00AD077F04020BDC9E
:100C81002097037F05222096037F06222092037F6F
:100C9100072220C6037F002220C1037F012220C535
:100CA100037F02222090037F03222091037F0422ED
:030CB1007FFF22A0
:090E0A007FFF120C81EFF460F986
:010E130022BC
:0F0DD2008007120C81EFF46005120DF080F422FF
:100CD900EFC394004005EF940A4002E4FF8F30AF60
:0A0CE9003074232FF8E6FF020E42DC
:10080000120DD2120E0A8F08E5657026E508B407AE
:1008100004AF2F8010E508C3940040E4E508D394AA
:100820000450DDAF08120AC1E4FF120E2D756502F7
:1008300080CEE5656401704FE508B40608120B5FD1
:10084000756502803AE508B40505120BA180B1E593
:1008500008C3940040AAE508D3940450A3AF2FAE78
:1008600030EE75F005A424332FF8C000E6FFAE0883
:10087000A8067401088002C333D8FC6FD000F6AF1D
:100880002F120AC1020800E5656402600302080035
:10089000E508B4071E7F01120E2DE4F509E4FDAF53
:1008A00009120BDC0509E509C3940440F0E4F56581
:1008B000020800E508C394004057E508D3940450AB
:1008C00050E52F65087003020800852F2E85082F3C
:1008D000AF2F120AC1120E45E4F509120DF0120DE8
:1008E000F0120C81EFB52F090509E509C3940A4000
:1008F000EAE509640A6003020800752101120DD2BD
:10090000852E2FAF2F120AC1120E45E4F5210208E1
:1009100000E508B40506756501020800E5086406EF
:1009200060030208000530E530C3940A4003E4F593
:0E09300030AF30120CD9AF2F120AC1020800EE
:0F0DE100120DF02097062096037F01227F00223B
:100A5200750C01E4FC74082CF8E4F6AF04FD120BEB
:100A6200DCE4FD120C140CBC04EBAF04E4FD803793
:100A7200120DD2120E0AAC07EC24FC500624FD60C3
:100A82002B80ED74082CF8E670047F0180027F0051
:100A920074082CF8A607AF0474082CF8E6FD120BB4
:100AA200DC74082CF8E6FD120C1480C4E50C70040A
:0F0AB2007F0180027F008F0CAF0C120E2D80B1E0
:03000B000209CA1D
:0D09CA00C0E0C0D075D000C005C006C00759
:1009D700758AFF758CFF0532E53270020531E53205
:1009E70064E87004E53164037056F531F532E52D9E
:1009F70070047F0180027F008F2DE5216008E52DBF
:100A070060047F0180027F00120CF3E4FEE565605D
:100A170005E565B40112AF06E52D6008EEB52F04B4
:100A27007D0180157D008011E565B4020FAF06EEEC
:100A3700B52F047D0180027D00120C140EBE05CD7A
:0B0A4700D007D006D005D0D0D0E032A0
:100DC200758901758AFF758CFFD28CD2A9D2AF22A8
:100C4C007F01120E2D120B1A120DE1EF6003120A26
:100C5C0052120DC2120BA1120E1DAF30120CD9AFD5
:100C6C002F120AC1E4FCAF04E4FD120BDC0CBC0433
:040C7C00F5E4F56541
:010C80002251
:080E2500120C4C12080080F8C9
:100DAF00759850758920758BFD758DFDD28ED2ACDF
:030DBF00D2AF228E
:03002300020D3D8E
:100D3D00C0D0309809C298859980A29A92A2309914
:080D4D0004C299C200D0D032AB
:090E14002000FDEFD200F5992247
:100CB4008B0D8A0E890FAB0DAA0EA90F120D0C60B5
:100CC40013050FE50F7002050E14F9120D0CFF1237
:050CD4000E1480E22275
:100D9B00AE071FEE600DE4FCFD0DED70010C4C6019
:030DAB00EF80F6E0
:010DAE002222
:0D0DFD00E4F5C7F5C5F5C675C380F5C42241
:100D550075C78275C5018FC4EEFF8FC375C65A75F9
:080D6500C6A500AFC2020DFD9E
:100D6D0075C78275C5028FC4EEFF8FC38DC275C660
:080D7D005A75C6A500020DFD28
:100D850075C78275C5038FC4EEFF8FC375C65A75C7
:060D9500C6A500020DFDE1
:10094A00020E34E493A3F8E493A34003F68001F281
:10095A0008DFF48029E493A3F85407240CC8C333AE
:10096A00C4540F4420C8834004F456800146F6DF7D
:10097A00E4800B0102040810204080900D25E47EDB
:10098A00019360BCA3FF543F30E509541FFEE49372
:10099A00A360010ECF54C025E060A840B8E493A339
:1009AA00FAE493A3F8E493A3C8C582C8CAC583CA64
:1009BA00F0A3C8C582C8CAC583CADFE9DEE780BE1C
:010D3C0000B6
:100D0C00BB010689828A83E0225002E722BBFE02E5
:090D1C00E32289828A83E4932218
:00000001FF
